S01500005465737430332D5469696D65722E7372656375
S113000045C0000080C0000095C000005CC0000036
S11300105AC0000058C0000056C0000054C0000080
S113002052C0000050C000004EC000004CC0000090
S11300304AC0000048C0000046C0000044C00000A0
S113004099C0000040C000003EC000003CC0000059
S11300503AC0000038C0000036C0000034C00000C0
S113006032C0000030C000002EC000002CC00000D0
S11300702AC0000028C0000026C0000024C00000E0
S113008022C0000020C000001EC0000011241FBEBA
S1130090CFEFD0E1DEBFCDBF11E0A0E0B1E0E4E6F8
S11300A0F2E000E00BBF02C007900D92A230B1074E
S11300B0D9F721E0A2E0B1E001C01D92A830B20757
S11300C0E1F7B0D0CDC09CCF862319F081E090E059
S11300D0089580E090E00895E4E6F0E080818F7E6A
S11300E08083E5E6F0E08081806180838091630015
S11300F060E1EADF892BD1F38091630060E1E4DF02
S1130100892BD1F708951F920F920FB60F921124E5
S11301108F939F9380910001909101010196909398
S11301200101809300019F918F910F900FBE0F905A
S11301301F9018951F920F920FB60F9211248F9350
S11301409F93809100019091010101979093010187
S1130150809300011816190634F081E090E0909322
S11301600101809300019F918F910F900FBE0F901A
S11301701F9018951F920F920FB60F9211240BB671
S11301800F922F933F938F939F93EF93FF938091BD
S1130190060190910701019690930701809306014F
S11301A049979CF110920701109206018091040175
S11301B0909105010196909305018093040120918B
S11301C000013091010182179307FCF010920501A0
S11301D0109204018091020190910301892B51F046
S11301E0E5E6F0E080818D7F808310920301109218
S11301F002010BC0E5E6F0E080818260808381E04B
S113020090E09093030180930201FF91EF919F91FD
S11302108F913F912F910F900BBE0F900FBE0F90B7
S11302201F901895E4E6F0E0808182608083C5E643
S1130230D0E08881826088834FDF88818D7F8883C6
S113024087B7816087BF83B7866083BF89B78360C0
S113025089BFEAE6F0E080818F6080837894FFCFE5
S1070260F894FFCF3C
S105026405008F
S9030000FC
