S01600005465737430342D54696D657231332E7372656378
S113000045C0000053C0000051C000004FC00000B4
S11300104DC000004BC0000049C0000047C00000B4
S113002045C0000043C0000041C000003FC00000C4
S11300303DC000003BC000003AC0000037C00000D3
S113004035C0000033C0000031C000002FC00000E4
S11300502DC000002BC0000029C0000027C00000F4
S113006025C0000023C0000021C000001FC0000004
S11300701DC000004DC0000019C0000017C00000E2
S113008015C0000013C0000011C0000011241FBEE1
S1130090CFEFD0E1DEBFCDBF21E0A0E0B1E001C0F1
S11300A01D92A430B207E1F764D07AC0A9CF1F92A1
S11300B00F920FB60F9211240BB60F928F939F934A
S11300C0EF93FF938091000190910101892B51F0EE
S11300D01092010110920001E5E6F0E08081816058
S11300E080830BC081E090E0909301018093000134
S11300F0E5E6F0E080818E7F8083FF91EF919F9110
S11301008F910F900BBE0F900FBE0F901F901895FC
S11301101F920F920FB60F9211240BB60F928F936A
S11301209F93EF93FF938091020190910301892B98
S113013051F01092030110920201E5E6F0E0808193
S1130140826080830BC081E090E0909303018093F0
S11301500201E5E6F0E080818D7F8083FF91EF91DD
S11301609F918F910F900BBE0F900FBE0F901F9019
S11301701895E4E6F0E080818760808387B7846027
S113018087BFEDE7F0E08081846080838EB5836073
S11301908EBDEAE8F0E08081836080837894FFCFAD
S10701A0F894FFCFFD
S9030000FC
