S015000054696D657230362D436C6F636B2E737265638F
S11300004EC0000088C00000D3C000002BC1000017
S113001063C0000061C000005FC000005DC000005C
S11300205BC0000059C000009FC1000055C0000023
S11300306DC1000051C000004FC000003AC1000073
S11300404BC0000049C0000047C0000045C000008C
S113005043C0000041C000003FC000003DC000009C
S11300603BC0000039C0000037C0000035C00000AC
S113007033C0000031C000002FC000002DC00000BC
S11300802BC0000029C0000027C0000064026802E1
S11300906E02710277027D02830295029E02112490
S11300A01FBECFEFD0E1DEBFCDBF11E0A0E0B1E0D5
S11300B0E2ECF5E000E00BBF02C007900D92A03126
S11300C0B107D9F721E0A0E1B1E001C01D92A4324B
S11300D0B207E1F7A1D173C293CFCF939C0168E536
S11300E072E03DD2462FC9016CE370E038D2FC01C6
S11300F02AE030E0CB01B90132D2C82FCF01B901D7
S11301002ED2E0E0F1E083836283C183408381E007
S113011090E0CF9108951F920F920FB60F92112481
S11301208F939F9380911E0190911F01892B51F40D
S113013080911E0190911F01019690931F0180935D
S11301401E012FC080911E0190911F01019751F44F
S113015080911E0190911F01019690931F0180933D
S11301601E011FC080911E0190911F01039751F43D
S113017080911E0190911F01019690931F0180931D
S11301801E010FC080911E0190911F01049749F434
S113019080911E0190911F01019690931F018093FD
S11301A01E019F918F910F900FBE0F901F90189575
S11301B01F920F920FB60F9211242F938F939F9338
S11301C080911E0190911F010197A9F48091220151
S11301D090912301CC9690932301809322018091E6
S11301E0220190912301853D9D40A4F110922301A9
S11301F0109222012FC080911E0190911F0104973B
S113020051F480911C0190911D01019690931D0160
S113021080931C011FC080911E0190911F010597BE
S113022051F480911E0190911F01019690931F013A
S113023080931E010FC080911E0190911F010797AA
S113024049F480911E0190911F01019690931F0122
S113025080931E019F918F912F910F900FBE0F904D
S11302601F9018951F920F920FB60F9211248F931F
S11302709F9380911E0190911F01029739F483E0AE
S113028090E090931F0180931E010CC080911E0189
S113029090911F01039731F482E090E090931F0145
S11302A080931E019F918F910F900FBE0F901F900E
S11302B018951F920F920FB60F9211248F939F934C
S11302C080911E0190911F010297C1F480911A013F
S11302D090911B01019690931B0180931A01C3977F
S11302E06CF010921B0110921A01809120019091E0
S11302F021010196909321018093200112BE9F91C8
S11303008F910F900FBE0F901F9018951F920F9210
S11303100FB60F9211248F939F9380911E01909199
S11303201F010697C1F4809118019091190101965B
S11303309093190180931801C3976CF010921901DE
S113034010921801809116019091170101979093D2
S11303501701809316011DBC1CBC9F918F910F90B7
S11303600FBE0F901F9018951F920F920FB60F9209
S113037011240BB60F922F933F938F939F93EF9378
S1130380FF938091140190911501019690931501AA
S11303908093140103979CF110921501109214019B
S11303A080E090E029C021E030E0082E02C0220F56
S11303B0331F0A94E2F728BB8130910561F4FC01F4
S11303C0E050FF4FE081F0E0EB5FFE4F20812068BA
S11303D020952BBB0AC0FC01E050FF4FE081F0E008
S11303E0EB5FFE4F208120952BBBEFE7FEE33197B7
S11303F0F1F700C00000019684309105A4F2FF914A
S1130400EF919F918F913F912F910F900BBE0F9081
S11304100FBE0F901F901895E4E6F0E08081816094
S1130420808387B38F6087BB8AB38FEF8ABB8FE0EB
S113043088BB1BBA87B7826087BF87B7806487BFD2
S113044087B7806187BF83B7876083BF85B58460C2
S113045085BD8EB585608EBD8DE781BF8DE790E04B
S11304609BBD8ABD89B7876089BF8AE280936A0091
S1130470789480912201909123012FDE40912201F2
S1130480509123018091200190912101480F591F1F
S1130490509313014093120180911C0190911D010E
S11304A02091160130911701820F931F909311012F
S11304B080931001E0911E01F0911F01E930F105D4
S11304C0E8F6EA5BFF4F5EC080E090E006DED6CF40
S11304D0809122019091230100DED0CFCA01FDDD7D
S11304E0CDCF80911C0190911D01F7DDC7CF809184
S11304F01C0190911D01F1DDC1CF80911C019091EF
S11305001D01EBDDBBCFE9DD80911001909111015C
S1130510892B09F0B3CF80911E0190911F010196A0
S113052090931F0180931E01A9CFE5E6F0E080813E
S11305308160808380E090E0D0DDA0CF80E090E017
S1130540CCDD10921D0110921C0110921701109223
S11305501601E5E6F0E080818E7F80838FCF97FBE4
S1130560072E16F4009406D077FD08D014D007FCAB
S113057005D03EF4909581959F4F089570956195AF
S11305807F4F0895EE0FFF1F0024001C0BBE079041
S1130590F691E02D0994AA1BBB1B51E107C0AA1FC9
S11305A0BB1FA617B70710F0A61BB70B881F991F10
S11305B05A95A9F780959095BC01CD010895F894BA
S10505C0FFCF67
S11305C201020304003F065B4F666D7D277F6F00C7
S9030000FC
