S00E00005465737430312E7372656315
S113000045C000004BC0000049C0000047C00000CC
S113001045C0000043C0000041C000003FC00000D4
S11300203DC000003BC0000039C0000037C00000E4
S113003035C0000033C0000031C000002FC00000F4
S11300402DC000002BC0000029C0000027C0000004
S113005025C0000023C0000021C000001FC0000014
S11300601DC000001BC0000019C0000017C0000024
S113007015C0000013C0000011C000000FC0000034
S11300800DC000000BC0000009C0000011241FBEF9
S1130090CFEFD0E1DEBFCDBF36D029C2B1CF809142
S11300A0630080FD03C081E090E0089580E090E06B
S11300B0089520916300227084EF91E005C0E0E987
S11300C0F1E03197F1F701970097C9F7211103C0C7
S11300D081E090E0089580E090E00895209163002D
S11300E0247084EF91E005C0E0E9F1E03197F1F785
S11300F001970097C9F7211103C081E090E00895AA
S113010080E090E00895E4E6F0E0808180618083FF
S11301108081887F8083C3DF892BE9F3CCE2D1E03F
S113012011E0113009F07DC0E5E6F0E080818061E6
S11301308083BE010D2E000C880B990BC1D04B019E
S11301405C0120E030E04AE755E446D16B017C01D4
S113015020E030E040E85FE381D0882304F120E030
S11301603FEF4FE757E4C701B60132D118169CF4AC
S113017020E030E040E251E4C501B4012DD172D059
S113018006C080E991E00197F1F7615071096115AA
S11301907105B9F709C0C701B60164D002C061E0B6
S11301A070E0CB010197F1F7E5E6F0E080818F7E06
S11301B0808320E030E040E85FE3C701B6014ED021
S11301C0882304F120E03FEF4FE757E4C701B6016D
S11301D0FFD018169CF420E030E040E251E4C50161
S11301E0B401FAD03FD006C080E991E00197F1F75D
S11301F06150710961157105B9F709C0C701B601EC
S113020031D002C061E070E0CB010197F1F751DF1A
S1130210892B29F463DF892B21F0E29602C0C2E323
S1130220D0E03DDF892B79F0113011F410E001C0EA
S113023011E088E893E105C0E0E9F1E03197F1F7D6
S113024001970097C9F788EE93E005C0E0E9F1E073
S11302503197F1F701970097C9F763CF6CD008F491
S113026081E0089594D088F09F5790F0B92F992792
S1130270B751A0F0D1F0660F771F881F991F1AF0AD
S1130280BA95C9F712C0B13081F09BD0B1E008959E
S113029098C0672F782F8827B85F39F0B93FCCF31F
S11302A0869577956795B395D9F73EF490958095A3
S11302B0709561957F4F8F4F9F4F0895E89409C0C3
S11302C097FB3EF490958095709561957F4F8F4F85
S11302D09F4F9923A9F0F92F96E9BB279395F6959B
S11302E0879577956795B795F111F8CFFAF4BB0F19
S11302F011F460FF1BC06F5F7F4F8F4F9F4F16C07D
S1130300882311F096E911C0772321F09EE8872F06
S1130310762F05C0662371F096E8862F70E060E0C2
S11303202AF09A95660F771F881FDAF7880F96953B
S1130330879597F90895990F0008550FAA0BE0E8DF
S1130340FEEF16161706E807F907C0F01216130693
S1130350E407F50798F0621B730B840B950B39F4D3
S11303600A2661F0232B242B252B21F408950A2639
S113037009F4A140A6958FEF811D811D089557FDB5
S11303809058440F551F59F05F3F71F04795880FFF
S113039097FB991F61F09F3F79F087950895121696
S11303A013061406551FF2CF4695F1DF08C0161642
S11303B017061806991FF1CF8695710561050894F3
S11303C00895E894BB2766277727CB0197F908950A
S11303D0B2DF08F48FEF08950BD078C069D028F00D
S11303E06ED018F0952309F05AC05FC01124EACFEB
S11303F0C6DFA0F3959FD1F3950F50E0551F629F80
S1130400F001729FBB27F00DB11D639FAA27F00D69
S1130410B11DAA1F649F6627B00DA11D661F829F90
S11304202227B00DA11D621F739FB00DA11D621F75
S1130430839FA00D611D221F749F3327A00D611D92
S1130440231F849F600D211D822F762F6A2F112474
S11304509F5750408AF0E1F088234AF0EE0FFF1FC7
S1130460BB1F661F771F881F91505040A9F79E3FFE
S1130470510570F014C0A6CF5F3FECF3983EDCF357
S1130480869577956795B795F795E7959F5FC1F73B
S1130490FE2B880F911D9695879597F9089597F9E6
S11304A09F6780E870E060E008959FEF80EC089516
S11304B000240A941616170618060906089500243F
S11304C00A9412161306140605060895092E0394B9
S11304D0000C11F4882352F0BB0F40F4BF2B11F42D
S11304E060FF04C06F5F7F4F8F4F9F4F0895F89454
S10504F0FFCF38
S9030000FC
